{"abi":[{"type":"constructor","inputs":[{"name":"votingToken_","type":"address","internalType":"contract IVotingToken"},{"name":"franchiserFactory_","type":"address","internalType":"contract FranchiserFactory"}],"stateMutability":"nonpayable"},{"type":"function","name":"franchiserFactory","inputs":[],"outputs":[{"name":"","type":"address","internalType":"contract FranchiserFactory"}],"stateMutability":"view"},{"type":"function","name":"getAllDelegations","inputs":[{"name":"franchiser","type":"address","internalType":"contract Franchiser"}],"outputs":[{"name":"delegationsWithVotes","type":"tuple[][]","internalType":"struct IFranchiserLens.DelegationWithVotes[][]","components":[{"name":"delegator","type":"address","internalType":"address"},{"name":"delegatee","type":"address","internalType":"address"},{"name":"franchiser","type":"address","internalType":"contract Franchiser"},{"name":"votes","type":"uint256","internalType":"uint256"}]}],"stateMutability":"view"},{"type":"function","name":"getAllDelegations","inputs":[{"name":"owner","type":"address","internalType":"address"},{"name":"delegatee","type":"address","internalType":"address"}],"outputs":[{"name":"","type":"tuple[][]","internalType":"struct IFranchiserLens.DelegationWithVotes[][]","components":[{"name":"delegator","type":"address","internalType":"address"},{"name":"delegatee","type":"address","internalType":"address"},{"name":"franchiser","type":"address","internalType":"contract Franchiser"},{"name":"votes","type":"uint256","internalType":"uint256"}]}],"stateMutability":"view"},{"type":"function","name":"getHorizontalDelegations","inputs":[{"name":"franchiser","type":"address","internalType":"contract Franchiser"}],"outputs":[{"name":"delegations","type":"tuple[]","internalType":"struct IFranchiserLens.Delegation[]","components":[{"name":"delegator","type":"address","internalType":"address"},{"name":"delegatee","type":"address","internalType":"address"},{"name":"franchiser","type":"address","internalType":"contract Franchiser"}]}],"stateMutability":"view"},{"type":"function","name":"getRootDelegation","inputs":[{"name":"franchiser","type":"address","internalType":"contract Franchiser"}],"outputs":[{"name":"delegation","type":"tuple","internalType":"struct IFranchiserLens.Delegation","components":[{"name":"delegator","type":"address","internalType":"address"},{"name":"delegatee","type":"address","internalType":"address"},{"name":"franchiser","type":"address","internalType":"contract Franchiser"}]}],"stateMutability":"view"},{"type":"function","name":"getVerticalDelegations","inputs":[{"name":"franchiser","type":"address","internalType":"contract Franchiser"}],"outputs":[{"name":"delegations","type":"tuple[]","internalType":"struct IFranchiserLens.Delegation[]","components":[{"name":"delegator","type":"address","internalType":"address"},{"name":"delegatee","type":"address","internalType":"address"},{"name":"franchiser","type":"address","internalType":"contract Franchiser"}]}],"stateMutability":"view"},{"type":"function","name":"votingToken","inputs":[],"outputs":[{"name":"","type":"address","internalType":"contract IVotingToken"}],"stateMutability":"view"}],"bytecode":{"object":"0x60c060409080825234620001f15781816200170c8038038091620000248285620001f6565b833981010312620001f15780516001600160a01b0391908281168103620001f15760208092015190838216808303620001f157600492849260805260a0528551928380926374ae269b60e11b82525afa9081156200017257600091620001cf575b506001600160601b03906200009f90821660081462000251565b6004828460a0511686519283809263630dee6960e11b82525afa8015620001c45783916000916200017d575b50600486518096819363e08eae5f60e01b8352165afa8015620001725762000103936002936000926200013e575b5050161462000251565b5161149c908162000270823960805181818161019f0152611403015260a05181818160b901528181610235015281816105ef015261095f0152f35b620001629250803d106200016a575b620001598183620001f6565b81019062000230565b3880620000f9565b503d6200014d565b84513d6000823e3d90fd5b909181813d8311620001bc575b620001968183620001f6565b81010312620001b85751908482168203620001b55750829038620000cb565b80fd5b5080fd5b503d6200018a565b85513d6000823e3d90fd5b620001ea9150823d84116200016a57620001598183620001f6565b3862000085565b600080fd5b601f909101601f19168101906001600160401b038211908210176200021a57604052565b634e487b7160e01b600052604160045260246000fd5b90816020910312620001f157516001600160601b0381168103620001f15790565b156200025957565b634e487b7160e01b600052600160045260246000fdfe6040608081526004908136101561001557600080fd5b600091823560e01c90816308ecd5c0146106765781631cad183c1461055457816371456623146104bb57816397f2c53d146101c3578163b034012314610154578163df5fc105146100e1575063f3dc336b1461007057600080fd5b346100dd57817ffffffffffffffffffffffffffffffffffffffffffffffffffffffffffffffffc3601126100dd576020905173ffffffffffffffffffffffffffffffffffffffff7f0000000000000000000000000000000000000000000000000000000000000000168152f35b5080fd5b9050346101505760207ffffffffffffffffffffffffffffffffffffffffffffffffffffffffffffffffc36011261015057359173ffffffffffffffffffffffffffffffffffffffff8316830361014d575061013e61014992610cc2565b9051918291826107bd565b0390f35b80fd5b8280fd5b5050346100dd57817ffffffffffffffffffffffffffffffffffffffffffffffffffffffffffffffffc3601126100dd576020905173ffffffffffffffffffffffffffffffffffffffff7f0000000000000000000000000000000000000000000000000000000000000000168152f35b90503461015057602092837ffffffffffffffffffffffffffffffffffffffffffffffffffffffffffffffffc36011261014d5773ffffffffffffffffffffffffffffffffffffffff938235858116810361015057845190836102248361089b565b83855b60a081106104a757505087807f000000000000000000000000000000000000000000000000000000000000000016925b16828114610435578751917fce9b793000000000000000000000000000000000000000000000000000000000835285838981855afa92831561042b5787936103f0575b5088517f1e31d05300000000000000000000000000000000000000000000000000000000815286818a81865afa9081156103e657918b8a94928c8a958c9261039c575b50908261031494939251986102f18a610834565b1688521684870152828c870152600181019561030d828a610bb0565b5287610bb0565b508951928380927f8da5cb5b0000000000000000000000000000000000000000000000000000000082525afa80156103925789908790610358575b81925016610257565b50508481813d831161038b575b61036f81836108b7565b8101031261038757886103828192610917565b61034f565b8580fd5b503d610365565b88513d88823e3d90fd5b9496505050509181813d83116103df575b6103b781836108b7565b810103126103db579161031487928c8c816103d28e98610917565b929394506102dd565b8780fd5b503d6103ad565b8a513d8a823e3d90fd5b9092508581813d8311610424575b61040881836108b7565b810103126104205761041990610917565b913861029a565b8680fd5b503d6103fe565b89513d89823e3d90fd5b8786858461044281610c08565b925b8181106104585784518061014986826107bd565b806104a061046860019386610bb0565b517fffffffffffffffffffffffffffffffffffffffffffffffffffffffffffffffff83860301906104998289610c82565b5286610c82565b5001610444565b6104af6108f8565b81860152018490610227565b9050346101505760207ffffffffffffffffffffffffffffffffffffffffffffffffffffffffffffffffc36011261015057359173ffffffffffffffffffffffffffffffffffffffff8316830361014d575061055261051a60609361093d565b915180926040908173ffffffffffffffffffffffffffffffffffffffff91828151168552826020820151166020860152015116910152565bf35b90503461015057817ffffffffffffffffffffffffffffffffffffffffffffffffffffffffffffffffc3601126101505780359073ffffffffffffffffffffffffffffffffffffffff91828116809103610672576024359280841680940361038757602092604491865195869485937ff5f2df8600000000000000000000000000000000000000000000000000000000855284015260248301527f0000000000000000000000000000000000000000000000000000000000000000165afa908115610666579061062d916101499491610638575b50610fe8565b9051918291826106d3565b610659915060203d811161065f575b61065181836108b7565b810190610c96565b38610627565b503d610647565b505051903d90823e3d90fd5b8480fd5b9050346101505760207ffffffffffffffffffffffffffffffffffffffffffffffffffffffffffffffffc36011261015057359173ffffffffffffffffffffffffffffffffffffffff8316830361014d575061062d61014992610fe8565b602080820190808352835180925260409283810182858560051b840101960194600080935b86851061070a57505050505050505090565b9091929394887fffffffffffffffffffffffffffffffffffffffffffffffffffffffffffffffc08383999a9b0301865289519082808351928381520192019085905b80821061076d5750505090806001929a0195019501939695949291906106f8565b9193608060019294865173ffffffffffffffffffffffffffffffffffffffff808251168352808583015116858401528b820151168b8301526060809101519082015201940192018993929161074c565b6020908160408183019282815285518094520193019160005b8281106107e4575050505090565b909192938260608261082860019489516040908173ffffffffffffffffffffffffffffffffffffffff91828151168552826020820151166020860152015116910152565b019501939291016107d6565b6060810190811067ffffffffffffffff82111761085057604052565b7f4e487b7100000000000000000000000000000000000000000000000000000000600052604160045260246000fd5b6080810190811067ffffffffffffffff82111761085057604052565b60a0810190811067ffffffffffffffff82111761085057604052565b90601f7fffffffffffffffffffffffffffffffffffffffffffffffffffffffffffffffe0910116810190811067ffffffffffffffff82111761085057604052565b6040519061090582610834565b60006040838281528260208201520152565b519073ffffffffffffffffffffffffffffffffffffffff8216820361093857565b600080fd5b6109456108f8565b5073ffffffffffffffffffffffffffffffffffffffff91827f000000000000000000000000000000000000000000000000000000000000000016915b83811660409182517f8da5cb5b000000000000000000000000000000000000000000000000000000009081815260209260049184818481895afa908115610ba55789918b91600091610b6b575b501614610a41575090829185518095819382525afa928315610a375750908592916000926109ff575b505016610981565b90809350813d8311610a30575b610a1681836108b7565b8101031261014d5750610a298491610917565b38806109f7565b503d610a0c565b513d6000823e3d90fd5b9450505050508392509290921660408051927fce9b79300000000000000000000000000000000000000000000000000000000084526020908185600481875afa948515610b6057600095610b29575b5082517f1e31d0530000000000000000000000000000000000000000000000000000000081528281600481885afa908115610b1e57600091610ae9575b5081845196610adb88610834565b168652169084015282015290565b908382813d8311610b17575b610aff81836108b7565b8101031261014d5750610b1190610917565b38610acd565b503d610af5565b84513d6000823e3d90fd5b90948282813d8311610b59575b610b4081836108b7565b8101031261014d5750610b5290610917565b9338610a90565b503d610b36565b83513d6000823e3d90fd5b925090508582813d8111610b9e575b610b8481836108b7565b8101031261014d575089610b988a92610917565b386109ce565b503d610b7a565b87513d6000823e3d90fd5b906005811015610bc15760051b0190565b7f4e487b7100000000000000000000000000000000000000000000000000000000600052603260045260246000fd5b67ffffffffffffffff81116108505760051b60200190565b90610c1282610bf0565b610c1f60405191826108b7565b8281527fffffffffffffffffffffffffffffffffffffffffffffffffffffffffffffffe0610c4d8294610bf0565b019060005b828110610c5e57505050565b602090610c696108f8565b82828501015201610c52565b805115610bc15760200190565b8051821015610bc15760209160051b010190565b90816020910312610938575173ffffffffffffffffffffffffffffffffffffffff811681036109385790565b604080517fd1ddf4ef000000000000000000000000000000000000000000000000000000008152929160049160009173ffffffffffffffffffffffffffffffffffffffff9081169083878681855afa968715610f99578497610eff575b50610d2a8751610c08565b96845b8151811015610ef65782610d418284610c82565b5116908551917f78b440ac000000000000000000000000000000000000000000000000000000008352888301526020918281602481895afa908115610eec579085918991610ecf575b50168651907fce9b793000000000000000000000000000000000000000000000000000000000825283828b81845afa918215610ec5578992610e8a575b508751937f1e31d05300000000000000000000000000000000000000000000000000000000855280858c81855afa8015610e805787908b90610e3d575b60019650818b5195610e1587610834565b168552169083015287820152610e2b828c610c82565b52610e36818b610c82565b5001610d2d565b5050909192938181813d8311610e79575b610e5881836108b7565b81010312610e75579086610e70600196959493610917565b610e04565b8980fd5b503d610e4e565b89513d8c823e3d90fd5b9091508381813d8311610ebe575b610ea281836108b7565b81010312610eba57610eb390610917565b9038610dc7565b8880fd5b503d610e98565b88513d8b823e3d90fd5b610ee69150843d861161065f5761065181836108b7565b38610d8a565b87513d8a823e3d90fd5b50505050505050565b9096503d8085833e610f1181836108b7565b81019060209081818403126103875780519067ffffffffffffffff821161042057019180601f84011215610387578251610f4a81610bf0565b93610f57875195866108b7565b818552838086019260051b8201019283116103db578301905b828210610f8257505050509538610d1f565b838091610f8e84610917565b815201910190610f70565b50505051903d90823e3d90fd5b60005b828110610fb557505050565b606082820152602001610fa9565b60405190610fd08261087f565b60006060838281528260208201528260408201520152565b90604090815192610ff88461089b565b60005b60a0811061138d575061100d9061093d565b82519183830183811067ffffffffffffffff821117610850578452600180845260005b6020808210156110525790602091611046610fc3565b90828801015201611030565b5050928552928291611079906110679061139b565b86519061107382610c75565b52610c75565b50815b6005811061115757506000825b611127575b7fffffffffffffffffffffffffffffffffffffffffffffffffffffffffffffffe06110d3826110cb6110c26110dd95610bf0565b955195866108b7565b808552610bf0565b0160208301610fa6565b80946000925b6110ee575b50505050565b8151831015611122578383611104829584610bb0565b5161110f8286610c82565b5261111a8185610c82565b5001926110e3565b6110e8565b6005811080611143575b1561113e57820182611089565b61108e565b5061114e8187610bb0565b51511515611131565b7fffffffffffffffffffffffffffffffffffffffffffffffffffffffffffffffff81939293016111878188610bb0565b51516111ce61119582610bf0565b916111a2875193846108b7565b8083527fffffffffffffffffffffffffffffffffffffffffffffffffffffffffffffffe0918291610bf0565b01906111de602092838501610fa6565b8560009485915b611300575b505061120d6111f885610bf0565b94611205895196876108b7565b808652610bf0565b0160005b8181106112dc575050506000908482905b611249575b5050506112348288610bb0565b5261123f8187610bb0565b500190829161107c565b909192939482518210156112d4579291906000845b61126f575b50830183959493611222565b61127d828495969394610c82565b51518110156112ca57806112be6112a86112a2859461129c888a610c82565b51610c82565b5161139b565b96838101976112b7828b610c82565b5288610c82565b5001819493929161125e565b9392919093611263565b949392611227565b8293949596506112ed929192610fc3565b8282880101520190879594939291611211565b90959691929394888c6113138482610bb0565b51518910156113805773ffffffffffffffffffffffffffffffffffffffff8593926113458b61129c8861134e96610bb0565b51015116610cc2565b6113588989610c82565b526113638888610c82565b5061136e8888610c82565b515101960190829796959493926111e5565b50509493929196956111ea565b606085820152602001610ffb565b6113a3610fc3565b50602473ffffffffffffffffffffffffffffffffffffffff80835116926020808360408183860151169401511693604051958680927f70a082310000000000000000000000000000000000000000000000000000000082528760048301527f0000000000000000000000000000000000000000000000000000000000000000165afa93841561148357600094611454575b50604051946114428661087f565b85528401526040830152606082015290565b90938482813d831161147c575b61146b81836108b7565b8101031261014d5750519238611434565b503d611461565b6040513d6000823e3d90fdfea164736f6c634300080f000a","linkReferences":{}},"methodIdentifiers":{"franchiserFactory()":"f3dc336b","getAllDelegations(address)":"08ecd5c0","getAllDelegations(address,address)":"1cad183c","getHorizontalDelegations(address)":"df5fc105","getRootDelegation(address)":"71456623","getVerticalDelegations(address)":"97f2c53d","votingToken()":"b0340123"},"id":30}