{"abi":[{"type":"function","name":"arithmeticError","inputs":[],"outputs":[{"name":"","type":"bytes","internalType":"bytes"}],"stateMutability":"view"},{"type":"function","name":"assertionError","inputs":[],"outputs":[{"name":"","type":"bytes","internalType":"bytes"}],"stateMutability":"view"},{"type":"function","name":"divisionError","inputs":[],"outputs":[{"name":"","type":"bytes","internalType":"bytes"}],"stateMutability":"view"},{"type":"function","name":"encodeStorageError","inputs":[],"outputs":[{"name":"","type":"bytes","internalType":"bytes"}],"stateMutability":"view"},{"type":"function","name":"enumConversionError","inputs":[],"outputs":[{"name":"","type":"bytes","internalType":"bytes"}],"stateMutability":"view"},{"type":"function","name":"indexOOBError","inputs":[],"outputs":[{"name":"","type":"bytes","internalType":"bytes"}],"stateMutability":"view"},{"type":"function","name":"lowLevelError","inputs":[],"outputs":[{"name":"","type":"bytes","internalType":"bytes"}],"stateMutability":"view"},{"type":"function","name":"memOverflowError","inputs":[],"outputs":[{"name":"","type":"bytes","internalType":"bytes"}],"stateMutability":"view"},{"type":"function","name":"popError","inputs":[],"outputs":[{"name":"","type":"bytes","internalType":"bytes"}],"stateMutability":"view"},{"type":"function","name":"zeroVarError","inputs":[],"outputs":[{"name":"","type":"bytes","internalType":"bytes"}],"stateMutability":"view"}],"bytecode":{"object":"0x6080806040523461001a576105ba9081610020823930815050f35b600080fdfe60806040818152600436101561001457600080fd5b600091823560e01c90816305ee86121461047d5750806310332977146104125780631de45560146103a75780638995290f1461033c578063986c5f68146102d1578063ac3d92c61461024d578063b22dc54d146101e2578063b67689da14610177578063d160e4de1461010c5763fa784a441461009057600080fd5b817ffffffffffffffffffffffffffffffffffffffffffffffffffffffffffffffffc36011261010857806101049151907f4e487b7100000000000000000000000000000000000000000000000000000000602083015260126024830152602482526100fa826104ec565b5191829182610537565b0390f35b5080fd5b50817ffffffffffffffffffffffffffffffffffffffffffffffffffffffffffffffffc36011261010857806101049151907f4e487b7100000000000000000000000000000000000000000000000000000000602083015260226024830152602482526100fa826104ec565b50817ffffffffffffffffffffffffffffffffffffffffffffffffffffffffffffffffc36011261010857806101049151907f4e487b7100000000000000000000000000000000000000000000000000000000602083015260516024830152602482526100fa826104ec565b50817ffffffffffffffffffffffffffffffffffffffffffffffffffffffffffffffffc36011261010857806101049151907f4e487b7100000000000000000000000000000000000000000000000000000000602083015260316024830152602482526100fa826104ec565b50817ffffffffffffffffffffffffffffffffffffffffffffffffffffffffffffffffc360112610108578051906020820182811067ffffffffffffffff8211176102a4579261010493825282525191829182610537565b6024847f4e487b710000000000000000000000000000000000000000000000000000000081526041600452fd5b50817ffffffffffffffffffffffffffffffffffffffffffffffffffffffffffffffffc36011261010857806101049151907f4e487b7100000000000000000000000000000000000000000000000000000000602083015260416024830152602482526100fa826104ec565b50817ffffffffffffffffffffffffffffffffffffffffffffffffffffffffffffffffc36011261010857806101049151907f4e487b7100000000000000000000000000000000000000000000000000000000602083015260116024830152602482526100fa826104ec565b50817ffffffffffffffffffffffffffffffffffffffffffffffffffffffffffffffffc36011261010857806101049151907f4e487b7100000000000000000000000000000000000000000000000000000000602083015260216024830152602482526100fa826104ec565b50817ffffffffffffffffffffffffffffffffffffffffffffffffffffffffffffffffc36011261010857806101049151907f4e487b7100000000000000000000000000000000000000000000000000000000602083015260016024830152602482526100fa826104ec565b919050827ffffffffffffffffffffffffffffffffffffffffffffffffffffffffffffffffc3601126104e85761010492507f4e487b7100000000000000000000000000000000000000000000000000000000602083015260326024830152602482526100fa826104ec565b8280fd5b6060810190811067ffffffffffffffff82111761050857604052565b7f4e487b7100000000000000000000000000000000000000000000000000000000600052604160045260246000fd5b919091602080825283519081818401526000945b828610610597575050601f817fffffffffffffffffffffffffffffffffffffffffffffffffffffffffffffffe092604095961161058a575b0116010190565b6000858286010152610583565b858101820151848701604001529481019461054b56fea164736f6c634300080f000a","linkReferences":{}},"methodIdentifiers":{"arithmeticError()":"8995290f","assertionError()":"10332977","divisionError()":"fa784a44","encodeStorageError()":"d160e4de","enumConversionError()":"1de45560","indexOOBError()":"05ee8612","lowLevelError()":"ac3d92c6","memOverflowError()":"986c5f68","popError()":"b22dc54d","zeroVarError()":"b67689da"},"id":1}