{"abi":[{"type":"function","name":"bytesToBytes32","inputs":[{"name":"b","type":"bytes","internalType":"bytes"},{"name":"offset","type":"uint256","internalType":"uint256"}],"outputs":[{"name":"","type":"bytes32","internalType":"bytes32"}],"stateMutability":"pure"},{"type":"event","name":"SlotFound","inputs":[{"name":"who","type":"address","indexed":false,"internalType":"address"},{"name":"fsig","type":"bytes4","indexed":false,"internalType":"bytes4"},{"name":"keysHash","type":"bytes32","indexed":false,"internalType":"bytes32"},{"name":"slot","type":"uint256","indexed":false,"internalType":"uint256"}],"anonymous":false},{"type":"event","name":"WARNING_UninitedSlot","inputs":[{"name":"who","type":"address","indexed":false,"internalType":"address"},{"name":"slot","type":"uint256","indexed":false,"internalType":"uint256"}],"anonymous":false}],"bytecode":{"object":"0x6080806040523461001a576102869081610020823930815050f35b600080fdfe60806004908136101561001157600080fd5b600091823560e01c63535849391461002857600080fd5b60407ffffffffffffffffffffffffffffffffffffffffffffffffffffffffffffffffc3601126102455767ffffffffffffffff9281358481116102755736602382011215610275578083013594808611610249577fffffffffffffffffffffffffffffffffffffffffffffffffffffffffffffffe0603f81601f8901160116850190858210908211176102495760405284845260249436868284010111610245579180918387959460209889930183890137860101528235918194805187811160001461023a5750869291909493945b82955b84871061010c578888604051908152f35b90919293949596871982116101b957878201835181101561020f57897fff00000000000000000000000000000000000000000000000000000000000000918501015116887fffffffffffffffffffffffffffffffffffffffffffffffffffffffffffffffff04600811891515166101e4578860031b1c17967fffffffffffffffffffffffffffffffffffffffffffffffffffffffffffffffff81146101b9576001019594939291906100fb565b86856011867f4e487b7100000000000000000000000000000000000000000000000000000000835252fd5b87866011877f4e487b7100000000000000000000000000000000000000000000000000000000835252fd5b87866032877f4e487b7100000000000000000000000000000000000000000000000000000000835252fd5b9291909493946100f8565b8280fd5b6024836041867f4e487b7100000000000000000000000000000000000000000000000000000000835252fd5b5080fdfea164736f6c634300080f000a","linkReferences":{}},"methodIdentifiers":{"bytesToBytes32(bytes,uint256)":"53584939"},"id":1}