{"abi":[{"type":"constructor","inputs":[],"stateMutability":"nonpayable"},{"type":"function","name":"DOMAIN_SEPARATOR","inputs":[],"outputs":[{"name":"","type":"bytes32","internalType":"bytes32"}],"stateMutability":"view"},{"type":"function","name":"allowance","inputs":[{"name":"owner","type":"address","internalType":"address"},{"name":"spender","type":"address","internalType":"address"}],"outputs":[{"name":"","type":"uint256","internalType":"uint256"}],"stateMutability":"view"},{"type":"function","name":"approve","inputs":[{"name":"spender","type":"address","internalType":"address"},{"name":"amount","type":"uint256","internalType":"uint256"}],"outputs":[{"name":"","type":"bool","internalType":"bool"}],"stateMutability":"nonpayable"},{"type":"function","name":"balanceOf","inputs":[{"name":"account","type":"address","internalType":"address"}],"outputs":[{"name":"","type":"uint256","internalType":"uint256"}],"stateMutability":"view"},{"type":"function","name":"checkpoints","inputs":[{"name":"account","type":"address","internalType":"address"},{"name":"pos","type":"uint32","internalType":"uint32"}],"outputs":[{"name":"","type":"tuple","internalType":"struct ERC20Votes.Checkpoint","components":[{"name":"fromBlock","type":"uint32","internalType":"uint32"},{"name":"votes","type":"uint224","internalType":"uint224"}]}],"stateMutability":"view"},{"type":"function","name":"decimals","inputs":[],"outputs":[{"name":"","type":"uint8","internalType":"uint8"}],"stateMutability":"view"},{"type":"function","name":"decreaseAllowance","inputs":[{"name":"spender","type":"address","internalType":"address"},{"name":"subtractedValue","type":"uint256","internalType":"uint256"}],"outputs":[{"name":"","type":"bool","internalType":"bool"}],"stateMutability":"nonpayable"},{"type":"function","name":"delegate","inputs":[{"name":"delegatee","type":"address","internalType":"address"}],"outputs":[],"stateMutability":"nonpayable"},{"type":"function","name":"delegateBySig","inputs":[{"name":"delegatee","type":"address","internalType":"address"},{"name":"nonce","type":"uint256","internalType":"uint256"},{"name":"expiry","type":"uint256","internalType":"uint256"},{"name":"v","type":"uint8","internalType":"uint8"},{"name":"r","type":"bytes32","internalType":"bytes32"},{"name":"s","type":"bytes32","internalType":"bytes32"}],"outputs":[],"stateMutability":"nonpayable"},{"type":"function","name":"delegates","inputs":[{"name":"account","type":"address","internalType":"address"}],"outputs":[{"name":"","type":"address","internalType":"address"}],"stateMutability":"view"},{"type":"function","name":"getPastTotalSupply","inputs":[{"name":"blockNumber","type":"uint256","internalType":"uint256"}],"outputs":[{"name":"","type":"uint256","internalType":"uint256"}],"stateMutability":"view"},{"type":"function","name":"getPastVotes","inputs":[{"name":"account","type":"address","internalType":"address"},{"name":"blockNumber","type":"uint256","internalType":"uint256"}],"outputs":[{"name":"","type":"uint256","internalType":"uint256"}],"stateMutability":"view"},{"type":"function","name":"getPermitSignature","inputs":[{"name":"vm","type":"address","internalType":"contract Vm"},{"name":"ownerPrivateKey","type":"uint256","internalType":"uint256"},{"name":"spender","type":"address","internalType":"address"},{"name":"value","type":"uint256","internalType":"uint256"}],"outputs":[{"name":"owner","type":"address","internalType":"address"},{"name":"deadline","type":"uint256","internalType":"uint256"},{"name":"v","type":"uint8","internalType":"uint8"},{"name":"r","type":"bytes32","internalType":"bytes32"},{"name":"s","type":"bytes32","internalType":"bytes32"}],"stateMutability":"nonpayable"},{"type":"function","name":"getVotes","inputs":[{"name":"account","type":"address","internalType":"address"}],"outputs":[{"name":"","type":"uint256","internalType":"uint256"}],"stateMutability":"view"},{"type":"function","name":"increaseAllowance","inputs":[{"name":"spender","type":"address","internalType":"address"},{"name":"addedValue","type":"uint256","internalType":"uint256"}],"outputs":[{"name":"","type":"bool","internalType":"bool"}],"stateMutability":"nonpayable"},{"type":"function","name":"mint","inputs":[{"name":"to","type":"address","internalType":"address"},{"name":"amount","type":"uint256","internalType":"uint256"}],"outputs":[],"stateMutability":"nonpayable"},{"type":"function","name":"name","inputs":[],"outputs":[{"name":"","type":"string","internalType":"string"}],"stateMutability":"view"},{"type":"function","name":"nonces","inputs":[{"name":"owner","type":"address","internalType":"address"}],"outputs":[{"name":"","type":"uint256","internalType":"uint256"}],"stateMutability":"view"},{"type":"function","name":"numCheckpoints","inputs":[{"name":"account","type":"address","internalType":"address"}],"outputs":[{"name":"","type":"uint32","internalType":"uint32"}],"stateMutability":"view"},{"type":"function","name":"permit","inputs":[{"name":"owner","type":"address","internalType":"address"},{"name":"spender","type":"address","internalType":"address"},{"name":"value","type":"uint256","internalType":"uint256"},{"name":"deadline","type":"uint256","internalType":"uint256"},{"name":"v","type":"uint8","internalType":"uint8"},{"name":"r","type":"bytes32","internalType":"bytes32"},{"name":"s","type":"bytes32","internalType":"bytes32"}],"outputs":[],"stateMutability":"nonpayable"},{"type":"function","name":"symbol","inputs":[],"outputs":[{"name":"","type":"string","internalType":"string"}],"stateMutability":"view"},{"type":"function","name":"totalSupply","inputs":[],"outputs":[{"name":"","type":"uint256","internalType":"uint256"}],"stateMutability":"view"},{"type":"function","name":"transfer","inputs":[{"name":"to","type":"address","internalType":"address"},{"name":"amount","type":"uint256","internalType":"uint256"}],"outputs":[{"name":"","type":"bool","internalType":"bool"}],"stateMutability":"nonpayable"},{"type":"function","name":"transferFrom","inputs":[{"name":"from","type":"address","internalType":"address"},{"name":"to","type":"address","internalType":"address"},{"name":"amount","type":"uint256","internalType":"uint256"}],"outputs":[{"name":"","type":"bool","internalType":"bool"}],"stateMutability":"nonpayable"},{"type":"event","name":"Approval","inputs":[{"name":"owner","type":"address","indexed":true,"internalType":"address"},{"name":"spender","type":"address","indexed":true,"internalType":"address"},{"name":"value","type":"uint256","indexed":false,"internalType":"uint256"}],"anonymous":false},{"type":"event","name":"DelegateChanged","inputs":[{"name":"delegator","type":"address","indexed":true,"internalType":"address"},{"name":"fromDelegate","type":"address","indexed":true,"internalType":"address"},{"name":"toDelegate","type":"address","indexed":true,"internalType":"address"}],"anonymous":false},{"type":"event","name":"DelegateVotesChanged","inputs":[{"name":"delegate","type":"address","indexed":true,"internalType":"address"},{"name":"previousBalance","type":"uint256","indexed":false,"internalType":"uint256"},{"name":"newBalance","type":"uint256","indexed":false,"internalType":"uint256"}],"anonymous":false},{"type":"event","name":"Transfer","inputs":[{"name":"from","type":"address","indexed":true,"internalType":"address"},{"name":"to","type":"address","indexed":true,"internalType":"address"},{"name":"value","type":"uint256","indexed":false,"internalType":"uint256"}],"anonymous":false}],"bytecode":{"object":"0x610140604081815234620003f8576200001882620003fd565b600491828152602091828201926315195cdd60e21b938481528251946200003f86620003fd565b868652828601528251906200005482620003fd565b86825263151154d560e21b838301528351946200007186620003fd565b6001808752603160f81b85880190815288516001600160401b03999195918a8211620003e3576003918254918583811c93168015620003d8575b8a841014620002da578190601f9384811162000382575b508a908483116001146200031b576000926200030f575b505060001982851b1c191690851b1782555b8251928b8411620002fa578c548581811c91168015620002ef575b8a821014620002da578281116200028f575b5088918411600114620002245793839491849260009562000218575b50501b92600019911b1c19161788555b51902093519020918360e052610100958387524660a0528151928301937f8b73c3c69bb8fe3d512ecc4cf759cc79239f7b179b0ffacaa9a75d522b39400f958686528385015260608401524660808401523060a084015260a0835260c0830195838710908711176200020357508490525190206080523060c052610120908152612cf5928362000430843960805183612a5d015260a05183612b29015260c05183612a2e015260e05183612aac01525182612ad201525181612a890152f35b604190634e487b7160e01b6000525260246000fd5b01519350388062000134565b9190601f198416928d600052848a6000209460005b8c898383106200027757505050106200025c575b50505050811b01885562000144565b01519060f884600019921b161c19169055388080806200024d565b86860151895590970196948501948893500162000239565b8d600052896000208380870160051c8201928c8810620002d0575b0160051c019086905b828110620002c357505062000118565b60008155018690620002b3565b92508192620002aa565b60228e634e487b7160e01b6000525260246000fd5b90607f169062000106565b60418d634e487b7160e01b6000525260246000fd5b015190503880620000d9565b60008681528c8120899550929190601f198516908e5b8282106200036a575050841162000351575b505050811b018255620000eb565b015160001983871b60f8161c1916905538808062000343565b8385015186558b979095019493840193018e62000331565b909150846000528a6000208480850160051c8201928d8610620003ce575b918991869594930160051c01915b828110620003be575050620000c2565b60008155859450899101620003ae565b92508192620003a0565b92607f1692620000ab565b60418c634e487b7160e01b6000525260246000fd5b600080fd5b604081019081106001600160401b038211176200041957604052565b634e487b7160e01b600052604160045260246000fdfe60806040908082526004908136101561001757600080fd5b600091823560e01c91826306fdde03146119b657508163095ea7b31461196e57816318160ddd1461193157816323b872dd14611804578163313ce567146117ca5781633644e51514611788578163395093511461170e5781633a46b1a81461154b57816340c10f19146110e9578163587cde1e146110845781635c19a95c146110425781636fcfff4514610fd257816370a0823114610f715781637b59ee1714610c465781637ecebe0014610be45781638e539e8c14610a5057816395d89b41146108f85781639ab24eb0146107dc578163a457c2d7146106d9578163a9059cbb1461068a578163c3cda52014610473578163d505accf1461027957508063dd62ed3e146102055763f1127ed81461012e57600080fd5b3461020257817ffffffffffffffffffffffffffffffffffffffffffffffffffffffffffffffffc36011261020257610164611b72565b63ffffffff916024359183831683036101fe5791848273ffffffffffffffffffffffffffffffffffffffff7bffffffffffffffffffffffffffffffffffffffffffffffffffffffff956101d195602085516101be81611bbd565b82815201521681526008602052206120ac565b509160208451936101e185611bbd565b5491821693848152019060201c8152835192835251166020820152f35b5080fd5b80fd5b5090346101fe57807ffffffffffffffffffffffffffffffffffffffffffffffffffffffffffffffffc3601126101fe5780602092610241611b72565b610249611b9a565b73ffffffffffffffffffffffffffffffffffffffff91821683526001865283832091168252845220549051908152f35b8284346101fe5760e07ffffffffffffffffffffffffffffffffffffffffffffffffffffffffffffffffc3601126101fe576102b2611b72565b926102bb611b9a565b6044359160843560643560ff8216820361046f57804211610412576103a061039889926103118473ffffffffffffffffffffffffffffffffffffffff166000526005602052604060002090815491600183019055565b9489519060208201927f6e71edae12b1b97f4d1f60370fef10105fa2faae0126114a169c64845d6126c9845273ffffffffffffffffffffffffffffffffffffffff80971697888d850152878b1660608501528b608085015260a084015260c083015260c0825261038082611c08565b61039360c4359360a43593519020612b4f565b612955565b919091612730565b16036103b557506103b2929394611ed1565b51f35b60649060208551917f08c379a0000000000000000000000000000000000000000000000000000000008352820152601e60248201527f45524332305065726d69743a20696e76616c6964207369676e617475726500006044820152fd5b60648360208851917f08c379a0000000000000000000000000000000000000000000000000000000008352820152601d60248201527f45524332305065726d69743a206578706972656420646561646c696e650000006044820152fd5b8680fd5b839150346106865760c07ffffffffffffffffffffffffffffffffffffffffffffffffffffffffffffffffc360112610686576104ad611b72565b9060243560443560643560ff8116810361046f578142116106295785519060208201927fe48329057bfd03d55e49b547132e39cffd9c1820ad7b9d4c5307691425d15adf845273ffffffffffffffffffffffffffffffffffffffff87168884015284606084015260808301526080825260a0820182811067ffffffffffffffff8211176105fd579161055d9594939161055593895261039360a4359360843593519020612b4f565b939093612730565b6105908373ffffffffffffffffffffffffffffffffffffffff166000526005602052604060002090815491600183019055565b036105a05750906103b291612129565b60649060208551917f08c379a0000000000000000000000000000000000000000000000000000000008352820152601960248201527f4552433230566f7465733a20696e76616c6964206e6f6e6365000000000000006044820152fd5b6024896041887f4e487b7100000000000000000000000000000000000000000000000000000000835252fd5b60648460208851917f08c379a0000000000000000000000000000000000000000000000000000000008352820152601d60248201527f4552433230566f7465733a207369676e617475726520657870697265640000006044820152fd5b8280fd5b8284346101fe57807ffffffffffffffffffffffffffffffffffffffffffffffffffffffffffffffffc3601126101fe576020906106d26106c8611b72565b6024359033611ca0565b5160018152f35b9190503461020257827ffffffffffffffffffffffffffffffffffffffffffffffffffffffffffffffffc36011261020257610712611b72565b918360243592338152600160205281812073ffffffffffffffffffffffffffffffffffffffff86168252602052205490828210610759576020856106d28585038733611ed1565b60849060208651917f08c379a0000000000000000000000000000000000000000000000000000000008352820152602560248201527f45524332303a2064656372656173656420616c6c6f77616e63652062656c6f7760448201527f207a65726f0000000000000000000000000000000000000000000000000000006064820152fd5b8383346102025760207ffffffffffffffffffffffffffffffffffffffffffffffffffffffffffffffffc3601126102025773ffffffffffffffffffffffffffffffffffffffff61082a611b72565b168152600860205281812054806108675750602092507bffffffffffffffffffffffffffffffffffffffffffffffffffffffff90915b5191168152f35b82822091600182106108cc5750602093507bffffffffffffffffffffffffffffffffffffffffffffffffffffffff917fffffffffffffffffffffffffffffffffffffffffffffffffffffffffffffffff6108c29201906120ac565b5054831c91610860565b806011867f4e487b71000000000000000000000000000000000000000000000000000000006024945252fd5b8284346101fe57817ffffffffffffffffffffffffffffffffffffffffffffffffffffffffffffffffc3601126101fe57805191809380549160019083821c92828516948515610a46575b6020958686108114610a1a578589529081156109d85750600114610980575b61097c8787610972828c0383611c24565b5191829182611afc565b0390f35b81529295507f8a35acfbc15ff81a39ae7d344fd709f28e8600b4aa8c65c6b64bfe7fe36bd19b5b8284106109c5575050508261097c9461097292820101948680610961565b80548685018801529286019281016109a7565b7fffffffffffffffffffffffffffffffffffffffffffffffffffffffffffffff00168887015250505050151560051b83010192506109728261097c8680610961565b6024846022857f4e487b7100000000000000000000000000000000000000000000000000000000835252fd5b93607f1693610942565b8383346102025760207ffffffffffffffffffffffffffffffffffffffffffffffffffffffffffffffffc36011261020257823592610a8f4385106120c4565b6009549382905b858210610b4f57505083610acf5750602092507bffffffffffffffffffffffffffffffffffffffffffffffffffffffff90915191168152f35b60018410610b235750507bffffffffffffffffffffffffffffffffffffffffffffffffffffffff6108c27fffffffffffffffffffffffffffffffffffffffffffffffffffffffffffffffff60209401612046565b9060116024927f4e487b7100000000000000000000000000000000000000000000000000000000835252fd5b9094600190610b64818818831c828916611c65565b918363ffffffff610b7485612046565b5054161115610b87575050945b90610a96565b919096507ffffffffffffffffffffffffffffffffffffffffffffffffffffffffffffffffe8111610bb85701610b81565b6024856011867f4e487b7100000000000000000000000000000000000000000000000000000000835252fd5b8284346101fe5760207ffffffffffffffffffffffffffffffffffffffffffffffffffffffffffffffffc3601126101fe578060209273ffffffffffffffffffffffffffffffffffffffff610c36611b72565b1681526005845220549051908152f35b839150346106865760807ffffffffffffffffffffffffffffffffffffffffffffffffffffffffffffffffc3601126106865780359173ffffffffffffffffffffffffffffffffffffffff93848416809403610202576024359160443595808716809703610686578151967f3644e51500000000000000000000000000000000000000000000000000000000885260209485898881305afa968715610f67578597610f31575b889950868697989960248751809981937fffa1864900000000000000000000000000000000000000000000000000000000835287878401525af1958615610f27578796610eee575b50604490878651958a8701987f6e71edae12b1b97f4d1f60370fef10105fa2faae0126114a169c64845d6126c98a52169a8b8888015260609889968789015260643560808901528260a08901527fffffffffffffffffffffffffffffffffffffffffffffffffffffffffffffffff978860c082015260c08152610db581611c08565b519020610e2a8c610dfe8b519384928301958690916042927f19010000000000000000000000000000000000000000000000000000000000008352600283015260228201520190565b037fffffffffffffffffffffffffffffffffffffffffffffffffffffffffffffffe08101835282611c24565b5190209b87519c8d9586947fe341eaa400000000000000000000000000000000000000000000000000000000865285015260248401525af1948515610ee4578497858097610e93575b50509660ff9160a098845198895288015216908501528301526080820152f35b955080985084809297503d8311610edd575b610eaf8183611c24565b81010312610ed95786519360ff8516850361020257508487015196820151939693948160a0610e73565b8380fd5b503d610ea5565b82513d86823e3d90fd5b9095508781813d8311610f20575b610f068183611c24565b8101031261046f5751838116810361046f57946044610d33565b503d610efc565b85513d89823e3d90fd5b96508589813d8311610f60575b610f488183611c24565b81010312610f5c5797519697889796610ceb565b8480fd5b503d610f3e565b84513d87823e3d90fd5b8284346101fe5760207ffffffffffffffffffffffffffffffffffffffffffffffffffffffffffffffffc3601126101fe578060209273ffffffffffffffffffffffffffffffffffffffff610fc3611b72565b16815280845220549051908152f35b8284346101fe5760207ffffffffffffffffffffffffffffffffffffffffffffffffffffffffffffffffc3601126101fe5763ffffffff61103a8260209473ffffffffffffffffffffffffffffffffffffffff61102c611b72565b168152600886522054612c53565b915191168152f35b8284346101fe5760207ffffffffffffffffffffffffffffffffffffffffffffffffffffffffffffffffc3601126101fe576103b261107e611b72565b33612129565b8284346101fe5760207ffffffffffffffffffffffffffffffffffffffffffffffffffffffffffffffffc3601126101fe576020918173ffffffffffffffffffffffffffffffffffffffff91826110d8611b72565b168152600785522054169051908152f35b8391503461068657817ffffffffffffffffffffffffffffffffffffffffffffffffffffffffffffffffc36011261068657611122611b72565b6024803573ffffffffffffffffffffffffffffffffffffffff80931680156114ef57816111af9161115582600254611c65565b600255808952602095898752888a20838154019055818a7fddf252ad1be2c89b69c2b068fc378daa952ba7f163c4a11628f55a4df523b3ef898c51878152a38980526007875280898b205416918a52888a205416906121be565b7bffffffffffffffffffffffffffffffffffffffffffffffffffffffff806002541161146e57600954938415928315611402576111ef90838a5b16611c65565b921580611394575b156112a157505061120790612ba6565b9260018310611277575050906112417fffffffffffffffffffffffffffffffffffffffffffffffffffffffffffffffff6103b29301612046565b509063ffffffff7fffffffffffffffffffffffffffffffffffffffffffffffffffffffff0000000083549260201b169116179055565b601186917f4e487b7100000000000000000000000000000000000000000000000000000000835252fd5b6112bb6112b5989796959392949843612c53565b92612ba6565b92848751926112c984611bbd565b63ffffffff809516845283019416845268010000000000000000811015611369578060016112fa9201600955612046565b95909561133f575051915163ffffffff9190921616911660201b7fffffffffffffffffffffffffffffffffffffffffffffffffffffffff000000001617905590915051f35b87808a927f4e487b7100000000000000000000000000000000000000000000000000000000825252fd5b88886041887f4e487b7100000000000000000000000000000000000000000000000000000000835252fd5b50600185106113d75763ffffffff6113cd7fffffffffffffffffffffffffffffffffffffffffffffffffffffffffffffffff8701612046565b50541643146111f7565b83886011887f4e487b7100000000000000000000000000000000000000000000000000000000835252fd5b60018610611443576111ef908361143a7fffffffffffffffffffffffffffffffffffffffffffffffffffffffffffffffff8901612046565b5054841c6111e9565b84896011897f4e487b7100000000000000000000000000000000000000000000000000000000835252fd5b505060309160849451937f08c379a00000000000000000000000000000000000000000000000000000000085528401528201527f4552433230566f7465733a20746f74616c20737570706c79207269736b73206f60448201527f766572666c6f77696e6720766f746573000000000000000000000000000000006064820152fd5b606485601f8560208a51937f08c379a00000000000000000000000000000000000000000000000000000000085528401528201527f45524332303a206d696e7420746f20746865207a65726f2061646472657373006044820152fd5b8391503461068657817ffffffffffffffffffffffffffffffffffffffffffffffffffffffffffffffffc36011261068657611584611b72565b602473ffffffffffffffffffffffffffffffffffffffff8135926115a94385106120c4565b16855260086020528385209283549286905b848210611679575050826115f557505050507bffffffffffffffffffffffffffffffffffffffffffffffffffffffff602092915191168152f35b6001839496929310611650575050506108c26020937fffffffffffffffffffffffffffffffffffffffffffffffffffffffffffffffff7bffffffffffffffffffffffffffffffffffffffffffffffffffffffff9301906120ac565b6011907f4e487b7100000000000000000000000000000000000000000000000000000000835252fd5b909360019061168e818718831c828816611c65565b918363ffffffff61169f858b6120ac565b50541611156116b2575050935b906115bb565b919095507ffffffffffffffffffffffffffffffffffffffffffffffffffffffffffffffffe81116116e357016116ac565b84896011867f4e487b7100000000000000000000000000000000000000000000000000000000835252fd5b8284346101fe57807ffffffffffffffffffffffffffffffffffffffffffffffffffffffffffffffffc3601126101fe576106d260209261178161174f611b72565b913381526001865284812073ffffffffffffffffffffffffffffffffffffffff84168252865284602435912054611c65565b9033611ed1565b8284346101fe57817ffffffffffffffffffffffffffffffffffffffffffffffffffffffffffffffffc3601126101fe576020906117c3612a17565b9051908152f35b8284346101fe57817ffffffffffffffffffffffffffffffffffffffffffffffffffffffffffffffffc3601126101fe576020905160128152f35b9050346101fe5760607ffffffffffffffffffffffffffffffffffffffffffffffffffffffffffffffffc3601126101fe5761183d611b72565b611845611b9a565b91846044359473ffffffffffffffffffffffffffffffffffffffff8416815260016020528181203382526020522054907fffffffffffffffffffffffffffffffffffffffffffffffffffffffffffffffff82036118ab575b6020866106d2878787611ca0565b8482106118d457509183916118c9602096956106d295033383611ed1565b91939481935061189d565b60649060208751917f08c379a0000000000000000000000000000000000000000000000000000000008352820152601d60248201527f45524332303a20696e73756666696369656e7420616c6c6f77616e63650000006044820152fd5b8284346101fe57817ffffffffffffffffffffffffffffffffffffffffffffffffffffffffffffffffc3601126101fe576020906002549051908152f35b8284346101fe57807ffffffffffffffffffffffffffffffffffffffffffffffffffffffffffffffffc3601126101fe576020906106d26119ac611b72565b6024359033611ed1565b84849234610ed957837ffffffffffffffffffffffffffffffffffffffffffffffffffffffffffffffffc360112610ed957600354600181811c9186908281168015611af2575b6020958686108214611ac65750848852908115611a865750600114611a2d575b61097c8686610972828b0383611c24565b929550600383527fc2575a0e9e593c00f959f8c92f12db2869c3395a3b0502d05e2516446f71f85b5b828410611a73575050508261097c94610972928201019486611a1c565b8054868501880152928601928101611a56565b7fffffffffffffffffffffffffffffffffffffffffffffffffffffffffffffff001687860152505050151560051b83010192506109728261097c86611a1c565b8360226024927f4e487b7100000000000000000000000000000000000000000000000000000000835252fd5b93607f16936119fc565b919091602080825283519081818401526000945b828610611b5c575050601f817fffffffffffffffffffffffffffffffffffffffffffffffffffffffffffffffe0926040959611611b4f575b0116010190565b6000858286010152611b48565b8581018201518487016040015294810194611b10565b6004359073ffffffffffffffffffffffffffffffffffffffff82168203611b9557565b600080fd5b6024359073ffffffffffffffffffffffffffffffffffffffff82168203611b9557565b6040810190811067ffffffffffffffff821117611bd957604052565b7f4e487b7100000000000000000000000000000000000000000000000000000000600052604160045260246000fd5b60e0810190811067ffffffffffffffff821117611bd957604052565b90601f7fffffffffffffffffffffffffffffffffffffffffffffffffffffffffffffffe0910116810190811067ffffffffffffffff821117611bd957604052565b81198111611c71570190565b7f4e487b7100000000000000000000000000000000000000000000000000000000600052601160045260246000fd5b73ffffffffffffffffffffffffffffffffffffffff9081169392918415611e4d578116908115611dc9576000858152806020526040908181205496858810611d465785611d44979882845283602052038383205584825282822086815401905584817fddf252ad1be2c89b69c2b068fc378daa952ba7f163c4a11628f55a4df523b3ef602086518a8152a381526007602052828282205416938152205416906121be565b565b608483517f08c379a000000000000000000000000000000000000000000000000000000000815260206004820152602660248201527f45524332303a207472616e7366657220616d6f756e742065786365656473206260448201527f616c616e636500000000000000000000000000000000000000000000000000006064820152fd5b60846040517f08c379a000000000000000000000000000000000000000000000000000000000815260206004820152602360248201527f45524332303a207472616e7366657220746f20746865207a65726f206164647260448201527f65737300000000000000000000000000000000000000000000000000000000006064820152fd5b60846040517f08c379a000000000000000000000000000000000000000000000000000000000815260206004820152602560248201527f45524332303a207472616e736665722066726f6d20746865207a65726f20616460448201527f64726573730000000000000000000000000000000000000000000000000000006064820152fd5b73ffffffffffffffffffffffffffffffffffffffff809116918215611fc35716918215611f3f5760207f8c5be1e5ebec7d5bd14f71427d1e84f3dd0314c0f7b2291e5b200ac8c7c3b925918360005260018252604060002085600052825280604060002055604051908152a3565b60846040517f08c379a000000000000000000000000000000000000000000000000000000000815260206004820152602260248201527f45524332303a20617070726f766520746f20746865207a65726f20616464726560448201527f73730000000000000000000000000000000000000000000000000000000000006064820152fd5b60846040517f08c379a0000000000000000000000000000000000000000000000000000000008152602060048201526024808201527f45524332303a20617070726f76652066726f6d20746865207a65726f2061646460448201527f72657373000000000000000000000000000000000000000000000000000000006064820152fd5b60095481101561207d5760096000527f6e1540171b6c0c960b71a7020d9f60077f6af931a8bbf590da0223dacf75c7af0190600090565b7f4e487b7100000000000000000000000000000000000000000000000000000000600052603260045260246000fd5b805482101561207d5760005260206000200190600090565b156120cb57565b60646040517f08c379a000000000000000000000000000000000000000000000000000000000815260206004820152601f60248201527f4552433230566f7465733a20626c6f636b206e6f7420796574206d696e6564006044820152fd5b611d449173ffffffffffffffffffffffffffffffffffffffff8092166000928184526007602052806040852054168092856020527f3134e8a2e6d97e929a7e54011ea5485d7d196dd5f0ba4d4ef95803e8e3fc257f60408720549660076020526040812094871694857fffffffffffffffffffffffff0000000000000000000000000000000000000000825416179055604051a45b73ffffffffffffffffffffffffffffffffffffffff9182169291168083141580612727575b6121ec57505050565b806124e8575b50816121fc575050565b600082815260086020526040812080548015929190831561247d57825b6122437bffffffffffffffffffffffffffffffffffffffffffffffffffffffff8092169687611c65565b94158061240c575b156122f4575061225a84612ba6565b92600182106122c757507fdec2bacdd2f05b59de34da9b523dff8be42e5e38e818c82fdb0bae774387a7249492611241604095937fffffffffffffffffffffffffffffffffffffffffffffffffffffffffffffffff6122ba9401906120ac565b82519182526020820152a2565b807f4e487b7100000000000000000000000000000000000000000000000000000000602492526011600452fd5b916122fe43612c53565b9061230886612ba6565b926040519161231683611bbd565b63ffffffff8094168352856020840195168552680100000000000000008210156123df579061234a916001820181556120ac565b9590956123b3575051915163ffffffff9190921616911660201b7fffffffffffffffffffffffffffffffffffffffffffffffffffffffff00000000161790557fdec2bacdd2f05b59de34da9b523dff8be42e5e38e818c82fdb0bae774387a724916040916122ba565b807f4e487b71000000000000000000000000000000000000000000000000000000006024925280600452fd5b6024877f4e487b710000000000000000000000000000000000000000000000000000000081526041600452fd5b50600182106124505763ffffffff6124467fffffffffffffffffffffffffffffffffffffffffffffffffffffffffffffffff8401856120ac565b505416431461224b565b6024847f4e487b710000000000000000000000000000000000000000000000000000000081526011600452fd5b600181106124bb576124b17fffffffffffffffffffffffffffffffffffffffffffffffffffffffffffffffff8201836120ac565b505460201c612219565b6024837f4e487b710000000000000000000000000000000000000000000000000000000081526011600452fd5b600081815260086020526040812080549182159182156126bb5781935b7bffffffffffffffffffffffffffffffffffffffffffffffffffffffff8095169487861061245057878603941580612677575b156125b8575061254784612ba6565b92600182106122c757507fdec2bacdd2f05b59de34da9b523dff8be42e5e38e818c82fdb0bae774387a7249492611241604095937fffffffffffffffffffffffffffffffffffffffffffffffffffffffffffffffff6125a79401906120ac565b82519182526020820152a2386121f2565b916125c243612c53565b906125cc86612ba6565b92604051916125da83611bbd565b63ffffffff8094168352856020840195168552680100000000000000008210156123df579061260e916001820181556120ac565b9590956123b3575051915163ffffffff9190921616911660201b7fffffffffffffffffffffffffffffffffffffffffffffffffffffffff00000000161790557fdec2bacdd2f05b59de34da9b523dff8be42e5e38e818c82fdb0bae774387a724916040916125a7565b50600182106124505763ffffffff6126b17fffffffffffffffffffffffffffffffffffffffffffffffffffffffffffffffff8401856120ac565b5054164314612538565b600184106126fa576126ef7fffffffffffffffffffffffffffffffffffffffffffffffffffffffffffffffff8501826120ac565b505460201c93612505565b6024827f4e487b710000000000000000000000000000000000000000000000000000000081526011600452fd5b508115156121e3565b600581101561292657806127415750565b600181036127a75760646040517f08c379a000000000000000000000000000000000000000000000000000000000815260206004820152601860248201527f45434453413a20696e76616c6964207369676e617475726500000000000000006044820152fd5b6002810361280d5760646040517f08c379a000000000000000000000000000000000000000000000000000000000815260206004820152601f60248201527f45434453413a20696e76616c6964207369676e6174757265206c656e677468006044820152fd5b600381036128995760846040517f08c379a000000000000000000000000000000000000000000000000000000000815260206004820152602260248201527f45434453413a20696e76616c6964207369676e6174757265202773272076616c60448201527f75650000000000000000000000000000000000000000000000000000000000006064820152fd5b6004146128a257565b60846040517f08c379a000000000000000000000000000000000000000000000000000000000815260206004820152602260248201527f45434453413a20696e76616c6964207369676e6174757265202776272076616c60448201527f75650000000000000000000000000000000000000000000000000000000000006064820152fd5b7f4e487b7100000000000000000000000000000000000000000000000000000000600052602160045260246000fd5b9291907f7fffffffffffffffffffffffffffffff5d576e7357a4501ddfe92f46681b20a08311612a0b5760ff16601b81141580612a00575b6129f4579160809493916020936040519384528484015260408301526060820152600093849182805260015afa156129e757815173ffffffffffffffffffffffffffffffffffffffff8116156129e1579190565b50600190565b50604051903d90823e3d90fd5b50505050600090600490565b50601c81141561298d565b50505050600090600390565b73ffffffffffffffffffffffffffffffffffffffff7f000000000000000000000000000000000000000000000000000000000000000016301480612b26575b15612a7f577f000000000000000000000000000000000000000000000000000000000000000090565b60405160208101907f000000000000000000000000000000000000000000000000000000000000000082527f000000000000000000000000000000000000000000000000000000000000000060408201527f000000000000000000000000000000000000000000000000000000000000000060608201524660808201523060a082015260a0815260c0810181811067ffffffffffffffff821117611bd95760405251902090565b507f00000000000000000000000000000000000000000000000000000000000000004614612a56565b610dfe612ba0612b5d612a17565b9260405192839160208301958690916042927f19010000000000000000000000000000000000000000000000000000000000008352600283015260228201520190565b51902090565b7bffffffffffffffffffffffffffffffffffffffffffffffffffffffff90818111612bcf571690565b60846040517f08c379a000000000000000000000000000000000000000000000000000000000815260206004820152602760248201527f53616665436173743a2076616c756520646f65736e27742066697420696e203260448201527f32342062697473000000000000000000000000000000000000000000000000006064820152fd5b63ffffffff90818111612c64571690565b60846040517f08c379a000000000000000000000000000000000000000000000000000000000815260206004820152602660248201527f53616665436173743a2076616c756520646f65736e27742066697420696e203360448201527f32206269747300000000000000000000000000000000000000000000000000006064820152fdfea164736f6c634300080f000a","linkReferences":{}},"methodIdentifiers":{"DOMAIN_SEPARATOR()":"3644e515","allowance(address,address)":"dd62ed3e","approve(address,uint256)":"095ea7b3","balanceOf(address)":"70a08231","checkpoints(address,uint32)":"f1127ed8","decimals()":"313ce567","decreaseAllowance(address,uint256)":"a457c2d7","delegate(address)":"5c19a95c","delegateBySig(address,uint256,uint256,uint8,bytes32,bytes32)":"c3cda520","delegates(address)":"587cde1e","getPastTotalSupply(uint256)":"8e539e8c","getPastVotes(address,uint256)":"3a46b1a8","getPermitSignature(address,uint256,address,uint256)":"7b59ee17","getVotes(address)":"9ab24eb0","increaseAllowance(address,uint256)":"39509351","mint(address,uint256)":"40c10f19","name()":"06fdde03","nonces(address)":"7ecebe00","numCheckpoints(address)":"6fcfff45","permit(address,address,uint256,uint256,uint8,bytes32,bytes32)":"d505accf","symbol()":"95d89b41","totalSupply()":"18160ddd","transfer(address,uint256)":"a9059cbb","transferFrom(address,address,uint256)":"23b872dd"},"id":47}